:100000000C9472000C9493000C9493000C94930045
:100010000C9493000C9493000C9493000C94930014
:100020000C9493000C9493000C9493000C94930004
:100030000C9493000C9493000C9493000C949300F4
:100040000C9493000C9493000C9493000C949300E4
:100050000C9493000C9493000C9493000C949300D4
:100060000C9493000C94F4000C9493000C94930063
:100070000C9493000C9493000C9493000C949300B4
:100080000C9493000C9493000C9493000C949300A4
:100090000C9493000C9493000C9493000C94930094
:1000A0000C9493000C9493000C9493000C94930084
:1000B0000C9493000C9493000C9493000C94930074
:1000C0000C9493000C9493000C9493000C94930064
:1000D0000C9493000C9493000C9493000C94930054
:1000E0000C94930011241FBECFEFD1E2DEBFCDBF31
:1000F00000E00CBF12E0A0E0B2E0E8E2F3E000E0D4
:100100000BBF02C007900D92A030B107D9F712E0E3
:10011000A0E0B2E001C01D92A330B107E1F70E9458
:100120001F010C9492010C9400008FEF8093040146
:1001300010920501089581B18F6081B982B1807FED
:1001400082B9EAE0F1E0808188618083EBE0F1E050
:1001500080818861808308950E949B000E949500A1
:100160000895E1ECF0E010821092C00086E08093E8
:10017000C2008FE58093C4001092C50088E9808397
:100180000895E1E2F1E010828FEF8093250191E084
:1001900090932401109229018093280110922B0141
:1001A00080932A0110922D0180932C0189EA80937B
:1001B00020018BE0808308958093280160932A01B9
:1001C000089592B1907F8F70982B92B9089586E030
:1001D0000E94E1000895F8940E94AC000E94C100C2
:1001E0000E94B100789408951F920F920FB60F925B
:1001F0000BB60F9211248F939F93EF93FF93E6EC2E
:10020000F0E08081809302028083853329F410928C
:1002100001021092000208C0883331F481E090E0BE
:100220009093010280930002FF91EF919F918F9133
:100230000F900BBE0F900FBE0F901F9018950E944D
:10024000EB0005E011E0EE24E3940F2EF7E0DF2E43
:10025000F02D0F2EFFE0CF2EF02D0F2EFFE1BF2E41
:10026000F02D0F2EFFE3AF2EF02D0F2EFFE79F2E68
:10027000F02D80E060E00E94DC008FEF9FE7A4E0BB
:1002800081509040A040E1F700C000008091000242
:10029000909101028130910561F77894C2E3D0E03A
:1002A0000F2EF3E0FF2EF02D8C2F6C2F0E94DC0020
:1002B0000E94E7008FEF9FE7A4E081509040A040AC
:1002C000E1F700C00000C233D10514F0D801EC9270
:1002D000CC34D10514F0F801F082C536D10514F004
:1002E000D801DC92CE37D10514F0F801C082C739AD
:1002F000D10514F0D801BC92C03BD10514F0F8012F
:10030000A082C93CD10514F0D8019C9280910002D2
:1003100090910102009709F4ACCF2196CF3FD1050F
:0803200019F6A7CFF894FFCFF6
:00000001FF
