:100000000C9472000C9493000C9493000C94930045
:100010000C9493000C9415030C94F0020C94930030
:100020000C9493000C9493000C9493000C94930004
:100030000C9493000C9493000C9493000C949300F4
:100040000C9493000C9493000C9493000C949300E4
:100050000C9493000C9493000C9493000C949300D4
:100060000C9493000C9493000C9493000C949300C4
:100070000C9493000C9493000C9493000C949300B4
:100080000C9493000C9493000C9493000C949300A4
:100090000C9493000C9493000C9493000C94930094
:1000A0000C9493000C9493000C9493000C94930084
:1000B0000C9493000C9493000C9493000C94930074
:1000C0000C9493000C9493000C9493000C94930064
:1000D0000C9493000C9493000C9493000C94930054
:1000E0000C94930011241FBECFEFD1E2DEBFCDBF31
:1000F00000E00CBF12E0A0E0B2E0E4E2FFE000E0CC
:100100000BBF02C007900D92A830B107D9F712E0DB
:10011000A8E0B2E001C01D92AD34B107E1F70E9442
:1001200091050C9490070C9400004F925F926F928F
:100130007F928F929F92AF92BF92CF92DF92EF9277
:10014000FF920F931F93CF93DF93C0902002D09024
:100150002102E0902202F0902302C0921C02D09271
:100160001D02E0921E02F0921F02C701B60120910B
:1001700018023091190240911A0250911B020E94FC
:10018000BB05D62FC72F182F092F862F9C2FA12FE5
:10019000B02F8093180290931902A0931A02B09383
:1001A0001B02C701B60120910C0230910D02409153
:1001B0000E0250910F020E94BA05B62EA72E982E5D
:1001C000892E862F9A2DA92DB82D809314029093F5
:1001D0001502A0931602B0931702C701B601209131
:1001E00004023091050240910602509107020E94DC
:1001F00006072B013C018D2F9C2FA12FB02FBC0196
:10020000CD01209128023091290240912A0250917B
:100210002B020E9406079B01AC01C301B2010E94A0
:10022000BB052B013C018B2D9A2DA92DB82DBC01AE
:10023000CD01209124023091250240912602509157
:1002400027020E9406079B01AC01C301B2010E9474
:10025000BB05DC01CB018093100290931102A093A7
:100260001202B0931302C0920C02D0920D02E092DF
:100270000E02F0920F02DF91CF911F910F91FF902C
:10028000EF90DF90CF90BF90AF909F908F907F9036
:100290006F905F904F90089586E69EE00197F1F78A
:1002A00000004098419880E388B9429AEFEFF7E464
:1002B0003197F1F700C000004298E6E6FEE0319782
:1002C000F1F700004098419888B9429AEFEFF7E4BF
:1002D0003197F1F700C000004298E6E6FEE0319762
:1002E000F1F700004098419888B9429A8FEF97E45F
:1002F0000197F1F700C000004298E6E6FEE0319772
:10030000F1F700004098419880E288B9429A8FEF57
:1003100097E40197F1F700C000004298089598B162
:100320009F7098B998B1282F207F922B98B9409848
:100330004198429AEFEFF7E43197F1F700C00000DF
:10034000429898B19F7098B998B18295807F892B17
:1003500088B940984198429A8FEF97E40197F1F756
:1003600000C000004298089586E69EE00197F1F7EC
:10037000000088E20E948F0181E00E948F0186E0E8
:100380000E948F018EE00E948F0180E80E948F0101
:10039000089598B19F7098B998B1282F207F922B1B
:1003A00098B9409A4198429AEFEFF7E43197F1F704
:1003B00000C00000429898B19F7098B998B182959A
:1003C000807F892B88B9409A4198429A8FEF97E4B1
:1003D0000197F1F700C000004298089580E80E945C
:1003E0008F010895CF93DF93EC018881882331F04A
:1003F00021960E94C90189918823D9F7DF91CF9175
:100400000895823079F0833018F48130C9F405C042
:10041000833069F08430A1F40FC0862F81580E9488
:100420008F010895862F81540E948F010895862F91
:100430008D560E948F010895862F8D520E948F0144
:1004400008950F931F93CF93DF938A01E9018823C7
:1004500011F0662319F40E94EE0102C00E9401020D
:10046000C530D10571F4C80160E177E20E946907E7
:10047000CB01C09690933902809338020E94C90143
:1004800003C0C430D105B9F4C80168EE73E00E941E
:100490006907CB0170933B0260933A026AE070E017
:1004A0000E946907C09690934C0280934B020E9471
:1004B000C90181E001C080E0C330D10511F0813075
:1004C000B1F4C80164E670E00E946907CB01709343
:1004D0003B0260933A026AE070E00E946907C096AE
:1004E00090934202809341020E94C90181E0C23090
:1004F000D10511F08130B1F42AE030E0C801B90132
:100500000E946907CB0170933B0260933A02B901E4
:100510000E946907C0969093400280933F020E9418
:10052000C90181E0C130D10511F0813061F4C80109
:100530006AE070E00E946907C09690934A02809337
:1005400049020E94C901C630D1051CF085E40E9411
:10055000C901DF91CF911F910F9108956C98749A02
:1005600008956D98759A089587B1876F87B988B196
:10057000807888B9089510BA11BA109207011092C4
:100580000801089581B18F6081B982B1807F82B9FD
:10059000EAE0F1E0808188618083EBE0F1E0808136
:1005A0008861808308950E94B4020E94BB020E9469
:1005B000C2020E94AE020E94B1020895F894EAE6D7
:1005C000F0E0808182608083EC9A78940895F894BA
:1005D000EAE6F0E0808188608083ED9A789408955F
:1005E0001F920F920FB60F9211248F939F93AF9388
:1005F000BF938091300290913102A0913202B0916C
:1006000033020196A11DB11D8093300290933102F7
:10061000A0933202B0933302BF91AF919F918F911B
:100620000F900FBE0F901F9018951F920F920FB64C
:100630000F9211248F939F93AF93BF9380913402B5
:1006400090913502A0913602B09137020196A11D1A
:10065000B11D8093340290933502A0933602B0937B
:100660003702BF91AF919F918F910F900FBE0F9066
:100670001F9018959C01B901882777FD8095982FC8
:100680000E94560625EE30ED4AEA50E40E94060725
:100690000E942306862F972F0895109243021092EE
:1006A00044021092450210924602109247021092A4
:1006B0004802009761F0E3E4F2E02AE030E0B9019B
:1006C0000E947D078193862F972F0097C1F7809115
:1006D0004802805D8093C600E0ECF0E0808185FFF9
:1006E000FDCF80914702805D8093C600E0ECF0E092
:1006F000808185FFFDCF80914602805D8093C6009A
:10070000E0ECF0E0808185FFFDCF80914502805DC7
:100710008093C600E0ECF0E0808185FFFDCF809102
:100720004402805D8093C600E0ECF0E0808185FFAC
:10073000FDCF8EE28093C600E0ECF0E0808185FF83
:10074000FDCF80914302805D8093C600E0ECF0E035
:10075000808185FFFDCF0895E1ECF0E010821092DA
:10076000C00086E08093C2008FE58093C4001092A1
:10077000C50088E980830895E1E2F1E010828FEFFF
:100780008093250191E09093240110922901809398
:10079000280110922B0180932A0110922D01809341
:1007A0002C0189EA809320018BE080830895EAE799
:1007B000F0E0108210927B0080E280937C0080E861
:1007C00080BF86E880830895883018F098E0909381
:1007D0007B008770806280937C00EAE7F0E0808194
:1007E00080648083808184FFFDCF80917900EAE777
:1007F000F0E090819061908310927B00089583E0F7
:100800000E94E40380932E0282E00E94E40380931E
:100810002D0281E00E94E40380932C0290912E022D
:100820009031A0F120912D02203178F0803168F4D0
:1008300080E090E0A0E0BFE380932002909321024B
:10084000A0932202B093230208952F3078F48031D0
:1008500068F48DEC9CECACE4BEE3809320029093B2
:100860002102A0932202B093230208952031F0F5D3
:100870008031E0F180E090E0DC01809320029093F1
:100880002102A0932202B0932302089520912D0209
:10089000203178F4803108F05AC080E090E0DC012B
:1008A0008093200290932102A0932202B09323020E
:1008B00008958031D8F00DC08DEC9CECACE4BEEB1B
:1008C0008093200290932102A0932202B0932302EE
:1008D000089580E090E0A0E0BFEB80932002909329
:1008E0002102A0932202B093230208959F3090F139
:1008F00090912D029F3070F18F3060F16091200255
:1009000070912102809122029091230220E030E038
:10091000A9010E941F0688236CF483E393E3A3E3F9
:10092000BFEB8093200290932102A0932202B09308
:100930002302089583E393E3A3E3BFE380932002BC
:1009400090932102A0932202B09323020895803154
:1009500068F2B2CF0895CF93DF93D82FC62F842F9C
:100960000E94E403482F80933C028D2F6C2F50E0AF
:1009700023E030E00E942102DF91CF91089580931F
:10098000280160932A0108958F929F92AF92BF929F
:10099000CF92DF92EF92FF92CF93DF9360910202AA
:1009A00070910302882777FD8095982F0E94560644
:1009B0006B017C018090100290901102A0901202B5
:1009C000B0901302A50194010E94BB050E9423066A
:1009D000DC01CB01EC0190930B0280930A02C7016A
:1009E000B601A50194010E94BA050E942306AB013D
:1009F000BC01CA0150930902409308021C161D064F
:100A000024F010920B0210920A021816190624F014
:100A1000109209021092080280910A0290910B0232
:100A20008F3F910534F08FEF90E090930B0280930D
:100A30000A0280910802909109028F3F910534F0DB
:100A40008FEF90E090930902809308020E943F0587
:100A500080910A02609108020E94BF04DF91CF9149
:100A6000FF90EF90DF90CF90BF90AF909F908F90CE
:100A7000089592B1907F8F70982B92B9089586E077
:100A80000E94390508950F931F93CF93DF930E941F
:100A9000FF030E9495000E94C4048091340290914B
:100AA00035020E943A03EC018091300290913102AC
:100AB0000E943A038C0180E092E00E944D03BE0147
:100AC000882777FD8095982F0E9456060E9423065E
:100AD000DC01CB010E944D03B801882777FD80958A
:100AE000982F0E9456060E942306DC01CB010E942B
:100AF0004D03DF91CF911F910F91089580E00E94E7
:100B000039050895F8940E94D3020E94D7030E94E9
:100B1000BC030E94DE020E94E7020E94AC037894AC
:100B200008950E9482050E944C010E94B40183E056
:100B30000E94E40380932E0282E00E94E4038093EB
:100B40002D0281E00E94E40380932C0210922F0278
:100B500081E061E043E00E94AB0481E065E042E0B7
:100B60000E94AB0481E069E041E00E94AB040E9476
:100B70004305DDCF5058BB27AA270ED00DC1FED0AC
:100B800030F003D120F031F49F3F11F41EF4F3C094
:100B90000EF4E095E7FBE9C0E92F0FD180F3BA1717
:100BA000620773078407950718F071F49EF527C153
:100BB0000EF4E0950B2EBA2FA02D0B01B901900178
:100BC0000C01CA01A0011124FF27591B99F0593FBC
:100BD00050F4503E68F11A16F040A22F232F342F04
:100BE0004427585FF3CF469537952795A795F04052
:100BF0005395C9F77EF41F16BA0B620B730B840B67
:100C0000BAF09150A1F0FF0FBB1F661F771F881F1E
:100C1000C2F70EC0BA0F621F731F841F48F4879576
:100C200077956795B795F7959E3F08F0B3CF939565
:100C3000880F08F09927EE0F97958795089571D042
:100C400008F481E0089504D06894B111D9C00895E2
:100C5000BCD088F09F5790F0B92F9927B751A0F0DA
:100C6000D1F0660F771F881F991F1AF0BA95C9F740
:100C700012C0B13081F0C3D0B1E00895C0C0672F79
:100C8000782F8827B85F39F0B93FCCF386957795F0
:100C90006795B395D9F73EF49095809570956195D9
:100CA0007F4F8F4F9F4F0895E89409C097FB3EF404
:100CB00090958095709561957F4F8F4F9F4F9923A9
:100CC000A9F0F92F96E9BB279395F6958795779527
:100CD0006795B795F111F8CFFAF4BB0F11F460FFE7
:100CE0001BC06F5F7F4F8F4F9F4F16C0882311F03F
:100CF00096E911C0772321F09EE8872F762F05C053
:100D0000662371F096E8862F70E060E02AF09A95ED
:100D1000660F771F881FDAF7880F9695879597F9E2
:100D20000895990F0008550FAA0BE0E8FEEF16167C
:100D30001706E807F907C0F012161306E407F507CF
:100D400098F0621B730B840B950B39F40A2661F043
:100D5000232B242B252B21F408950A2609F4A140E6
:100D6000A6958FEF811D811D089597F99F6780E8F3
:100D700070E060E008959FEF80EC089500240A94ED
:100D80001616170618060906089500240A94121666
:100D90001306140605060895092E0394000C11F499
:100DA000882352F0BB0F40F4BF2B11F460FF04C046
:100DB0006F5F7F4F8F4F9F4F089557FD9058440F9F
:100DC000551F59F05F3F71F04795880F97FB991FAA
:100DD00061F09F3F79F08795089512161306140667
:100DE000551FF2CF4695F1DF08C0161617061806F4
:100DF000991FF1CF86957105610508940895E894CF
:100E0000BB2766277727CB0197F908950BD0C4CF6E
:100E1000B5DF28F0BADF18F0952309F0A6CFABCFE5
:100E20001124EECFCADFA0F3959FD1F3950F50E0C8
:100E3000551F629FF001729FBB27F00DB11D639F8C
:100E4000AA27F00DB11DAA1F649F6627B00DA11D32
:100E5000661F829F2227B00DA11D621F739FB00DD8
:100E6000A11D621F839FA00D611D221F749F332748
:100E7000A00D611D231F849F600D211D822F762FE1
:100E80006A2F11249F5750408AF0E1F088234AF0DE
:100E9000EE0FFF1FBB1F661F771F881F915050402A
:100EA000A9F79E3F510570F060CFAACF5F3FECF3EA
:100EB000983EDCF3869577956795B795F795E79516
:100EC0009F5FC1F7FE2B880F911D9695879597F927
:100ED0000895AA1BBB1B51E107C0AA1FBB1FA61781
:100EE000B70710F0A61BB70B881F991F5A95A9F7D3
:100EF00080959095BC01CD01089597FB092E07269A
:100F00000AD077FD04D0E5DF06D000201AF47095F2
:100F100061957F4F0895F6F7909581959F4F0895BD
:040F2000F894FFCF73
:080F2400440096000000A04209
:00000001FF
